{
  "_format": "hh-sol-artifact-1",
  "contractName": "GameAssetMarketplace",
  "sourceName": "contracts/GameAssetMarketplace.sol",
  "abi": [
    {
      "inputs": [
        {
          "internalType": "uint256",
          "name": "initialFeePercentage",
          "type": "uint256"
        },
        {
          "internalType": "address",
          "name": "blvdTokenAddress",
          "type": "address"
        }
      ],
      "stateMutability": "nonpayable",
      "type": "constructor"
    },
    {
      "inputs": [
        {
          "internalType": "address",
          "name": "owner",
          "type": "address"
        }
      ],
      "name": "OwnableInvalidOwner",
      "type": "error"
    },
    {
      "inputs": [
        {
          "internalType": "address",
          "name": "account",
          "type": "address"
        }
      ],
      "name": "OwnableUnauthorizedAccount",
      "type": "error"
    },
    {
      "inputs": [],
      "name": "ReentrancyGuardReentrantCall",
      "type": "error"
    },
    {
      "anonymous": false,
      "inputs": [
        {
          "indexed": false,
          "internalType": "uint256",
          "name": "newFee",
          "type": "uint256"
        }
      ],
      "name": "FeeUpdated",
      "type": "event"
    },
    {
      "anonymous": false,
      "inputs": [
        {
          "indexed": true,
          "internalType": "uint256",
          "name": "listingId",
          "type": "uint256"
        }
      ],
      "name": "ListingCancelled",
      "type": "event"
    },
    {
      "anonymous": false,
      "inputs": [
        {
          "indexed": true,
          "internalType": "uint256",
          "name": "listingId",
          "type": "uint256"
        },
        {
          "indexed": true,
          "internalType": "address",
          "name": "seller",
          "type": "address"
        },
        {
          "indexed": true,
          "internalType": "address",
          "name": "nftContract",
          "type": "address"
        },
        {
          "indexed": false,
          "internalType": "uint256",
          "name": "tokenId",
          "type": "uint256"
        },
        {
          "indexed": false,
          "internalType": "uint256",
          "name": "price",
          "type": "uint256"
        }
      ],
      "name": "ListingCreated",
      "type": "event"
    },
    {
      "anonymous": false,
      "inputs": [
        {
          "indexed": true,
          "internalType": "uint256",
          "name": "listingId",
          "type": "uint256"
        },
        {
          "indexed": true,
          "internalType": "address",
          "name": "buyer",
          "type": "address"
        },
        {
          "indexed": true,
          "internalType": "address",
          "name": "seller",
          "type": "address"
        },
        {
          "indexed": false,
          "internalType": "uint256",
          "name": "price",
          "type": "uint256"
        }
      ],
      "name": "ListingSold",
      "type": "event"
    },
    {
      "anonymous": false,
      "inputs": [
        {
          "indexed": true,
          "internalType": "uint256",
          "name": "offerId",
          "type": "uint256"
        },
        {
          "indexed": true,
          "internalType": "address",
          "name": "seller",
          "type": "address"
        }
      ],
      "name": "OfferAccepted",
      "type": "event"
    },
    {
      "anonymous": false,
      "inputs": [
        {
          "indexed": true,
          "internalType": "uint256",
          "name": "offerId",
          "type": "uint256"
        }
      ],
      "name": "OfferCancelled",
      "type": "event"
    },
    {
      "anonymous": false,
      "inputs": [
        {
          "indexed": true,
          "internalType": "uint256",
          "name": "offerId",
          "type": "uint256"
        },
        {
          "indexed": true,
          "internalType": "address",
          "name": "buyer",
          "type": "address"
        },
        {
          "indexed": true,
          "internalType": "address",
          "name": "nftContract",
          "type": "address"
        },
        {
          "indexed": false,
          "internalType": "uint256",
          "name": "tokenId",
          "type": "uint256"
        },
        {
          "indexed": false,
          "internalType": "uint256",
          "name": "price",
          "type": "uint256"
        }
      ],
      "name": "OfferCreated",
      "type": "event"
    },
    {
      "anonymous": false,
      "inputs": [
        {
          "indexed": true,
          "internalType": "address",
          "name": "previousOwner",
          "type": "address"
        },
        {
          "indexed": true,
          "internalType": "address",
          "name": "newOwner",
          "type": "address"
        }
      ],
      "name": "OwnershipTransferred",
      "type": "event"
    },
    {
      "anonymous": false,
      "inputs": [
        {
          "indexed": false,
          "internalType": "address",
          "name": "newTokenAddress",
          "type": "address"
        }
      ],
      "name": "TokenAddressUpdated",
      "type": "event"
    },
    {
      "inputs": [
        {
          "internalType": "uint256",
          "name": "offerId",
          "type": "uint256"
        }
      ],
      "name": "acceptOffer",
      "outputs": [],
      "stateMutability": "nonpayable",
      "type": "function"
    },
    {
      "inputs": [],
      "name": "blvdToken",
      "outputs": [
        {
          "internalType": "contract IERC20",
          "name": "",
          "type": "address"
        }
      ],
      "stateMutability": "view",
      "type": "function"
    },
    {
      "inputs": [
        {
          "internalType": "uint256",
          "name": "listingId",
          "type": "uint256"
        }
      ],
      "name": "buyItem",
      "outputs": [],
      "stateMutability": "nonpayable",
      "type": "function"
    },
    {
      "inputs": [
        {
          "internalType": "uint256",
          "name": "listingId",
          "type": "uint256"
        }
      ],
      "name": "cancelListing",
      "outputs": [],
      "stateMutability": "nonpayable",
      "type": "function"
    },
    {
      "inputs": [
        {
          "internalType": "uint256",
          "name": "offerId",
          "type": "uint256"
        }
      ],
      "name": "cancelOffer",
      "outputs": [],
      "stateMutability": "nonpayable",
      "type": "function"
    },
    {
      "inputs": [
        {
          "internalType": "address",
          "name": "nftContract",
          "type": "address"
        },
        {
          "internalType": "uint256",
          "name": "tokenId",
          "type": "uint256"
        },
        {
          "internalType": "uint256",
          "name": "price",
          "type": "uint256"
        }
      ],
      "name": "createListing",
      "outputs": [],
      "stateMutability": "nonpayable",
      "type": "function"
    },
    {
      "inputs": [
        {
          "internalType": "address",
          "name": "nftContract",
          "type": "address"
        },
        {
          "internalType": "uint256",
          "name": "tokenId",
          "type": "uint256"
        },
        {
          "internalType": "uint256",
          "name": "price",
          "type": "uint256"
        },
        {
          "internalType": "uint256",
          "name": "expirationTime",
          "type": "uint256"
        }
      ],
      "name": "createOffer",
      "outputs": [],
      "stateMutability": "nonpayable",
      "type": "function"
    },
    {
      "inputs": [
        {
          "internalType": "address",
          "name": "nftContract",
          "type": "address"
        },
        {
          "internalType": "uint256",
          "name": "startIndex",
          "type": "uint256"
        },
        {
          "internalType": "uint256",
          "name": "count",
          "type": "uint256"
        }
      ],
      "name": "getActiveListingsByContract",
      "outputs": [
        {
          "internalType": "uint256[]",
          "name": "",
          "type": "uint256[]"
        }
      ],
      "stateMutability": "view",
      "type": "function"
    },
    {
      "inputs": [],
      "name": "getFeePercentage",
      "outputs": [
        {
          "internalType": "uint256",
          "name": "",
          "type": "uint256"
        }
      ],
      "stateMutability": "view",
      "type": "function"
    },
    {
      "inputs": [
        {
          "internalType": "uint256",
          "name": "listingId",
          "type": "uint256"
        }
      ],
      "name": "getListingDetails",
      "outputs": [
        {
          "internalType": "address",
          "name": "seller",
          "type": "address"
        },
        {
          "internalType": "address",
          "name": "nftContract",
          "type": "address"
        },
        {
          "internalType": "uint256",
          "name": "tokenId",
          "type": "uint256"
        },
        {
          "internalType": "uint256",
          "name": "price",
          "type": "uint256"
        },
        {
          "internalType": "bool",
          "name": "isActive",
          "type": "bool"
        },
        {
          "internalType": "uint256",
          "name": "createdAt",
          "type": "uint256"
        }
      ],
      "stateMutability": "view",
      "type": "function"
    },
    {
      "inputs": [
        {
          "internalType": "uint256",
          "name": "offerId",
          "type": "uint256"
        }
      ],
      "name": "getOfferDetails",
      "outputs": [
        {
          "internalType": "address",
          "name": "buyer",
          "type": "address"
        },
        {
          "internalType": "address",
          "name": "nftContract",
          "type": "address"
        },
        {
          "internalType": "uint256",
          "name": "tokenId",
          "type": "uint256"
        },
        {
          "internalType": "uint256",
          "name": "price",
          "type": "uint256"
        },
        {
          "internalType": "uint256",
          "name": "expiresAt",
          "type": "uint256"
        },
        {
          "internalType": "bool",
          "name": "isActive",
          "type": "bool"
        }
      ],
      "stateMutability": "view",
      "type": "function"
    },
    {
      "inputs": [],
      "name": "getTotalEscrowBalance",
      "outputs": [
        {
          "internalType": "uint256",
          "name": "",
          "type": "uint256"
        }
      ],
      "stateMutability": "view",
      "type": "function"
    },
    {
      "inputs": [
        {
          "internalType": "address",
          "name": "user",
          "type": "address"
        }
      ],
      "name": "getUserActiveOffers",
      "outputs": [
        {
          "internalType": "uint256[]",
          "name": "",
          "type": "uint256[]"
        }
      ],
      "stateMutability": "view",
      "type": "function"
    },
    {
      "inputs": [],
      "name": "owner",
      "outputs": [
        {
          "internalType": "address",
          "name": "",
          "type": "address"
        }
      ],
      "stateMutability": "view",
      "type": "function"
    },
    {
      "inputs": [],
      "name": "renounceOwnership",
      "outputs": [],
      "stateMutability": "nonpayable",
      "type": "function"
    },
    {
      "inputs": [
        {
          "internalType": "uint256",
          "name": "newFeePercentage",
          "type": "uint256"
        }
      ],
      "name": "setFeePercentage",
      "outputs": [],
      "stateMutability": "nonpayable",
      "type": "function"
    },
    {
      "inputs": [
        {
          "internalType": "address",
          "name": "newOwner",
          "type": "address"
        }
      ],
      "name": "transferOwnership",
      "outputs": [],
      "stateMutability": "nonpayable",
      "type": "function"
    },
    {
      "inputs": [
        {
          "internalType": "address",
          "name": "newTokenAddress",
          "type": "address"
        }
      ],
      "name": "updateTokenAddress",
      "outputs": [],
      "stateMutability": "nonpayable",
      "type": "function"
    },
    {
      "inputs": [],
      "name": "withdrawFees",
      "outputs": [],
      "stateMutability": "nonpayable",
      "type": "function"
    }
  ],
  "bytecode": "0x608060405234801561001057600080fd5b50604051613ed1380380613ed18339818101604052810190610032919061031f565b336001600081905550600073ffffffffffffffffffffffffffffffffffffffff168173ffffffffffffffffffffffffffffffffffffffff16036100ad5760006040517f1e4fbdf70000000000000000000000000000000000000000000000000000000081526004016100a4919061036e565b60405180910390fd5b6100bc816101c060201b60201c565b506103e8821115610102576040517f08c379a00000000000000000000000000000000000000000000000000000000081526004016100f9906103e6565b60405180910390fd5b600073ffffffffffffffffffffffffffffffffffffffff168173ffffffffffffffffffffffffffffffffffffffff1603610171576040517f08c379a000000000000000000000000000000000000000000000000000000000815260040161016890610452565b60405180910390fd5b8160028190555080600360006101000a81548173ffffffffffffffffffffffffffffffffffffffff021916908373ffffffffffffffffffffffffffffffffffffffff1602179055505050610472565b6000600160009054906101000a900473ffffffffffffffffffffffffffffffffffffffff16905081600160006101000a81548173ffffffffffffffffffffffffffffffffffffffff021916908373ffffffffffffffffffffffffffffffffffffffff1602179055508173ffffffffffffffffffffffffffffffffffffffff168173ffffffffffffffffffffffffffffffffffffffff167f8be0079c531659141344cd1fd0a4f28419497f9722a3daafe3b4186f6b6457e060405160405180910390a35050565b600080fd5b6000819050919050565b61029e8161028b565b81146102a957600080fd5b50565b6000815190506102bb81610295565b92915050565b600073ffffffffffffffffffffffffffffffffffffffff82169050919050565b60006102ec826102c1565b9050919050565b6102fc816102e1565b811461030757600080fd5b50565b600081519050610319816102f3565b92915050565b6000806040838503121561033657610335610286565b5b6000610344858286016102ac565b92505060206103558582860161030a565b9150509250929050565b610368816102e1565b82525050565b6000602082019050610383600083018461035f565b92915050565b600082825260208201905092915050565b7f4665652063616e6e6f7420657863656564203130250000000000000000000000600082015250565b60006103d0601583610389565b91506103db8261039a565b602082019050919050565b600060208201905081810360008301526103ff816103c3565b9050919050565b7f496e76616c696420746f6b656e20616464726573730000000000000000000000600082015250565b600061043c601583610389565b915061044782610406565b602082019050919050565b6000602082019050818103600083015261046b8161042f565b9050919050565b613a50806104816000396000f3fe608060405234801561001057600080fd5b50600436106101215760003560e01c8063ab5f9f06116100ad578063e7fb74c711610071578063e7fb74c7146102bf578063ebdab397146102db578063ef706adf1461030b578063f2fde38b14610327578063fb05da2e1461034357610121565b8063ab5f9f061461021d578063ae06c1b71461023b578063bf37e29714610257578063c815729d14610287578063d898aaf2146102a357610121565b806348075eda116100f457806348075eda146101865780634fb64be2146101a45780636691461a146101d9578063715018a6146101f55780638da5cb5b146101ff57610121565b806311efbf611461012657806324780c5614610144578063305a67a814610160578063476343ee1461017c575b600080fd5b61012e610378565b60405161013b9190612a4c565b60405180910390f35b61015e60048036038101906101599190612af6565b610382565b005b61017a60048036038101906101759190612b49565b6108d9565b005b610184610aaf565b005b61018e610c57565b60405161019b9190612a4c565b60405180910390f35b6101be60048036038101906101b99190612b49565b610cf5565b6040516101d096959493929190612ba0565b60405180910390f35b6101f360048036038101906101ee9190612c01565b610d96565b005b6101fd610e88565b005b610207610e9c565b6040516102149190612c2e565b60405180910390f35b610225610ec6565b6040516102329190612ca8565b60405180910390f35b61025560048036038101906102509190612b49565b610eec565b005b610271600480360381019061026c9190612c01565b610f7a565b60405161027e9190612d81565b60405180910390f35b6102a1600480360381019061029c9190612b49565b6111af565b005b6102bd60048036038101906102b89190612da3565b6117f6565b005b6102d960048036038101906102d49190612b49565b611e1d565b005b6102f560048036038101906102f09190612af6565b61239a565b6040516103029190612d81565b60405180910390f35b61032560048036038101906103209190612b49565b6124f6565b005b610341600480360381019061033c9190612c01565b612767565b005b61035d60048036038101906103589190612b49565b6127ed565b60405161036f96959493929190612e0a565b60405180910390f35b6000600254905090565b61038a61288e565b600081116103cd576040517f08c379a00000000000000000000000000000000000000000000000000000000081526004016103c490612ec8565b60405180910390fd5b3373ffffffffffffffffffffffffffffffffffffffff168373ffffffffffffffffffffffffffffffffffffffff16636352211e846040518263ffffffff1660e01b815260040161041d9190612a4c565b602060405180830381865afa15801561043a573d6000803e3d6000fd5b505050506040513d601f19601f8201168201806040525081019061045e9190612efd565b73ffffffffffffffffffffffffffffffffffffffff16146104b4576040517f08c379a00000000000000000000000000000000000000000000000000000000081526004016104ab90612f76565b60405180910390fd5b8273ffffffffffffffffffffffffffffffffffffffff1663e985e9c533306040518363ffffffff1660e01b81526004016104ef929190612f96565b602060405180830381865afa15801561050c573d6000803e3d6000fd5b505050506040513d601f19601f820116820180604052508101906105309190612feb565b806105df57503073ffffffffffffffffffffffffffffffffffffffff168373ffffffffffffffffffffffffffffffffffffffff1663081812fc846040518263ffffffff1660e01b81526004016105869190612a4c565b602060405180830381865afa1580156105a3573d6000803e3d6000fd5b505050506040513d601f19601f820116820180604052508101906105c79190612efd565b73ffffffffffffffffffffffffffffffffffffffff16145b61061e576040517f08c379a00000000000000000000000000000000000000000000000000000000081526004016106159061308a565b60405180910390fd5b6000600860008573ffffffffffffffffffffffffffffffffffffffff1673ffffffffffffffffffffffffffffffffffffffff168152602001908152602001600020600084815260200190815260200160002054146106b1576040517f08c379a00000000000000000000000000000000000000000000000000000000081526004016106a8906130f6565b60405180910390fd5b600660008154809291906106c490613145565b9190505550600060065490506040518060c001604052803373ffffffffffffffffffffffffffffffffffffffff1681526020018573ffffffffffffffffffffffffffffffffffffffff168152602001848152602001838152602001600115158152602001428152506004600083815260200190815260200160002060008201518160000160006101000a81548173ffffffffffffffffffffffffffffffffffffffff021916908373ffffffffffffffffffffffffffffffffffffffff16021790555060208201518160010160006101000a81548173ffffffffffffffffffffffffffffffffffffffff021916908373ffffffffffffffffffffffffffffffffffffffff160217905550604082015181600201556060820151816003015560808201518160040160006101000a81548160ff02191690831515021790555060a0820151816005015590505080600860008673ffffffffffffffffffffffffffffffffffffffff1673ffffffffffffffffffffffffffffffffffffffff1681526020019081526020016000206000858152602001908152602001600020819055508373ffffffffffffffffffffffffffffffffffffffff163373ffffffffffffffffffffffffffffffffffffffff16827f508c75a3cb42c068e54cf9e0b738921b4e2375725c5965ef4a110475606fc05a86866040516108c392919061318d565b60405180910390a4506108d46128d4565b505050565b6108e161288e565b60006004600083815260200190815260200160002090508060040160009054906101000a900460ff16610949576040517f08c379a000000000000000000000000000000000000000000000000000000000815260040161094090613202565b60405180910390fd5b3373ffffffffffffffffffffffffffffffffffffffff168160000160009054906101000a900473ffffffffffffffffffffffffffffffffffffffff1673ffffffffffffffffffffffffffffffffffffffff16146109db576040517f08c379a00000000000000000000000000000000000000000000000000000000081526004016109d29061326e565b60405180910390fd5b60008160040160006101000a81548160ff0219169083151502179055506000600860008360010160009054906101000a900473ffffffffffffffffffffffffffffffffffffffff1673ffffffffffffffffffffffffffffffffffffffff1673ffffffffffffffffffffffffffffffffffffffff16815260200190815260200160002060008360020154815260200190815260200160002081905550817f411aee90354c51b1b04cd563fcab2617142a9d50da19232d888547c8a1b7fd8a60405160405180910390a250610aac6128d4565b50565b610ab76128de565b6000610ac1610c57565b600360009054906101000a900473ffffffffffffffffffffffffffffffffffffffff1673ffffffffffffffffffffffffffffffffffffffff166370a08231306040518263ffffffff1660e01b8152600401610b1c9190612c2e565b602060405180830381865afa158015610b39573d6000803e3d6000fd5b505050506040513d601f19601f82011682018060405250810190610b5d91906132a3565b610b6791906132d0565b905060008111610bac576040517f08c379a0000000000000000000000000000000000000000000000000000000008152600401610ba390613350565b60405180910390fd5b600360009054906101000a900473ffffffffffffffffffffffffffffffffffffffff1673ffffffffffffffffffffffffffffffffffffffff1663a9059cbb610bf2610e9c565b836040518363ffffffff1660e01b8152600401610c10929190613370565b6020604051808303816000875af1158015610c2f573d6000803e3d6000fd5b505050506040513d601f19601f82011682018060405250810190610c539190612feb565b5050565b600080600090506000600190505b6007548111610ced576005600082815260200190815260200160002060050160009054906101000a900460ff168015610cb35750600560008281526020019081526020016000206004015442105b15610cda57600a60008281526020019081526020016000205482610cd79190613399565b91505b8080610ce590613145565b915050610c65565b508091505090565b60008060008060008060006005600089815260200190815260200160002090508060000160009054906101000a900473ffffffffffffffffffffffffffffffffffffffff168160010160009054906101000a900473ffffffffffffffffffffffffffffffffffffffff168260020154836003015484600401548560050160009054906101000a900460ff169650965096509650965096505091939550919395565b610d9e6128de565b600073ffffffffffffffffffffffffffffffffffffffff168173ffffffffffffffffffffffffffffffffffffffff1603610e0d576040517f08c379a0000000000000000000000000000000000000000000000000000000008152600401610e0490613419565b60405180910390fd5b80600360006101000a81548173ffffffffffffffffffffffffffffffffffffffff021916908373ffffffffffffffffffffffffffffffffffffffff1602179055507f2f0c7f17be551d1f4566672cd67adbe50173e96632f56ff80d80acc4ac00f32881604051610e7d9190612c2e565b60405180910390a150565b610e906128de565b610e9a6000612965565b565b6000600160009054906101000a900473ffffffffffffffffffffffffffffffffffffffff16905090565b600360009054906101000a900473ffffffffffffffffffffffffffffffffffffffff1681565b610ef46128de565b6103e8811115610f39576040517f08c379a0000000000000000000000000000000000000000000000000000000008152600401610f3090613485565b60405180910390fd5b806002819055507f8c4d35e54a3f2ef1134138fd8ea3daee6a3c89e10d2665996babdf70261e2c7681604051610f6f9190612a4c565b60405180910390a150565b60606000600960008473ffffffffffffffffffffffffffffffffffffffff1673ffffffffffffffffffffffffffffffffffffffff16815260200190815260200160002080548060200260200160405190810160405280929190818152602001828054801561100757602002820191906000526020600020905b815481526020019060010190808311610ff3575b505050505090506000805b82518110156110a15760008382815181106110305761102f6134a5565b5b602002602001015190506005600082815260200190815260200160002060050160009054906101000a900460ff16801561107f5750600560008281526020019081526020016000206004015442105b1561109357828061108f90613145565b9350505b508080600101915050611012565b5060008167ffffffffffffffff8111156110be576110bd6134d4565b5b6040519080825280602002602001820160405280156110ec5781602001602082028036833780820191505090505b5090506000805b84518110156111a2576000858281518110611111576111106134a5565b5b602002602001015190506005600082815260200190815260200160002060050160009054906101000a900460ff1680156111605750600560008281526020019081526020016000206004015442105b156111945780848481518110611179576111786134a5565b5b602002602001018181525050828061119090613145565b9350505b5080806001019150506110f3565b5081945050505050919050565b6111b761288e565b60006005600083815260200190815260200160002090508060050160009054906101000a900460ff1661121f576040517f08c379a00000000000000000000000000000000000000000000000000000000081526004016112169061354f565b60405180910390fd5b80600401544210611265576040517f08c379a000000000000000000000000000000000000000000000000000000000815260040161125c906135bb565b60405180910390fd5b60008160010160009054906101000a900473ffffffffffffffffffffffffffffffffffffffff1690506000826002015490503373ffffffffffffffffffffffffffffffffffffffff168273ffffffffffffffffffffffffffffffffffffffff16636352211e836040518263ffffffff1660e01b81526004016112e79190612a4c565b602060405180830381865afa158015611304573d6000803e3d6000fd5b505050506040513d601f19601f820116820180604052508101906113289190612efd565b73ffffffffffffffffffffffffffffffffffffffff161461137e576040517f08c379a000000000000000000000000000000000000000000000000000000000815260040161137590612f76565b60405180910390fd5b8173ffffffffffffffffffffffffffffffffffffffff1663e985e9c533306040518363ffffffff1660e01b81526004016113b9929190612f96565b602060405180830381865afa1580156113d6573d6000803e3d6000fd5b505050506040513d601f19601f820116820180604052508101906113fa9190612feb565b806114a957503073ffffffffffffffffffffffffffffffffffffffff168273ffffffffffffffffffffffffffffffffffffffff1663081812fc836040518263ffffffff1660e01b81526004016114509190612a4c565b602060405180830381865afa15801561146d573d6000803e3d6000fd5b505050506040513d601f19601f820116820180604052508101906114919190612efd565b73ffffffffffffffffffffffffffffffffffffffff16145b6114e8576040517f08c379a00000000000000000000000000000000000000000000000000000000081526004016114df9061308a565b60405180910390fd5b60008360030154905060008460000160009054906101000a900473ffffffffffffffffffffffffffffffffffffffff16905060006127106002548461152d91906135db565b611537919061364c565b90506000818461154791906132d0565b905060008760050160006101000a81548160ff0219169083151502179055506000600860008873ffffffffffffffffffffffffffffffffffffffff1673ffffffffffffffffffffffffffffffffffffffff16815260200190815260200160002060008781526020019081526020016000205490506000811180156115eb57506004600082815260200190815260200160002060040160009054906101000a900460ff165b156116765760006004600083815260200190815260200160002060040160006101000a81548160ff0219169083151502179055506000600860008973ffffffffffffffffffffffffffffffffffffffff1673ffffffffffffffffffffffffffffffffffffffff1681526020019081526020016000206000888152602001908152602001600020819055505b8673ffffffffffffffffffffffffffffffffffffffff166342842e0e3386896040518463ffffffff1660e01b81526004016116b39392919061367d565b600060405180830381600087803b1580156116cd57600080fd5b505af11580156116e1573d6000803e3d6000fd5b50505050600360009054906101000a900473ffffffffffffffffffffffffffffffffffffffff1673ffffffffffffffffffffffffffffffffffffffff1663a9059cbb33846040518363ffffffff1660e01b8152600401611742929190613370565b6020604051808303816000875af1158015611761573d6000803e3d6000fd5b505050506040513d601f19601f820116820180604052508101906117859190612feb565b506000600a60008b8152602001908152602001600020819055503373ffffffffffffffffffffffffffffffffffffffff16897fa7a40af5a1d0c10a3eb94af90cb008170915e8a71a6aaff052794cd762c72fc060405160405180910390a350505050505050506117f36128d4565b50565b6117fe61288e565b60008211611841576040517f08c379a000000000000000000000000000000000000000000000000000000000815260040161183890613726565b60405180910390fd5b3373ffffffffffffffffffffffffffffffffffffffff168473ffffffffffffffffffffffffffffffffffffffff16636352211e856040518263ffffffff1660e01b81526004016118919190612a4c565b602060405180830381865afa1580156118ae573d6000803e3d6000fd5b505050506040513d601f19601f820116820180604052508101906118d29190612efd565b73ffffffffffffffffffffffffffffffffffffffff1603611928576040517f08c379a000000000000000000000000000000000000000000000000000000000815260040161191f906137b8565b60405180910390fd5b42811161196a576040517f08c379a00000000000000000000000000000000000000000000000000000000081526004016119619061384a565b60405180910390fd5b81600360009054906101000a900473ffffffffffffffffffffffffffffffffffffffff1673ffffffffffffffffffffffffffffffffffffffff1663dd62ed3e33306040518363ffffffff1660e01b81526004016119c8929190612f96565b602060405180830381865afa1580156119e5573d6000803e3d6000fd5b505050506040513d601f19601f82011682018060405250810190611a0991906132a3565b1015611a4a576040517f08c379a0000000000000000000000000000000000000000000000000000000008152600401611a41906138b6565b60405180910390fd5b81600360009054906101000a900473ffffffffffffffffffffffffffffffffffffffff1673ffffffffffffffffffffffffffffffffffffffff166370a08231336040518263ffffffff1660e01b8152600401611aa69190612c2e565b602060405180830381865afa158015611ac3573d6000803e3d6000fd5b505050506040513d601f19601f82011682018060405250810190611ae791906132a3565b1015611b28576040517f08c379a0000000000000000000000000000000000000000000000000000000008152600401611b1f90613922565b60405180910390fd5b60076000815480929190611b3b90613145565b919050555060006007549050600360009054906101000a900473ffffffffffffffffffffffffffffffffffffffff1673ffffffffffffffffffffffffffffffffffffffff166323b872dd3330866040518463ffffffff1660e01b8152600401611ba69392919061367d565b6020604051808303816000875af1158015611bc5573d6000803e3d6000fd5b505050506040513d601f19601f82011682018060405250810190611be99190612feb565b5082600a6000838152602001908152602001600020819055506040518060c001604052803373ffffffffffffffffffffffffffffffffffffffff1681526020018673ffffffffffffffffffffffffffffffffffffffff168152602001858152602001848152602001838152602001600115158152506005600083815260200190815260200160002060008201518160000160006101000a81548173ffffffffffffffffffffffffffffffffffffffff021916908373ffffffffffffffffffffffffffffffffffffffff16021790555060208201518160010160006101000a81548173ffffffffffffffffffffffffffffffffffffffff021916908373ffffffffffffffffffffffffffffffffffffffff16021790555060408201518160020155606082015181600301556080820151816004015560a08201518160050160006101000a81548160ff021916908315150217905550905050600960003373ffffffffffffffffffffffffffffffffffffffff1673ffffffffffffffffffffffffffffffffffffffff1681526020019081526020016000208190806001815401808255809150506001900390600052602060002001600090919091909150558473ffffffffffffffffffffffffffffffffffffffff163373ffffffffffffffffffffffffffffffffffffffff16827f6cde6cb15ae436d9a233ffac7fee903539ea6b27dc2065434ae7d3900b6cdd7a8787604051611e0692919061318d565b60405180910390a450611e176128d4565b50505050565b611e2561288e565b60006004600083815260200190815260200160002090508060040160009054906101000a900460ff16611e8d576040517f08c379a0000000000000000000000000000000000000000000000000000000008152600401611e8490613202565b60405180910390fd5b60008160000160009054906101000a900473ffffffffffffffffffffffffffffffffffffffff169050600082600301549050600061271060025483611ed291906135db565b611edc919061364c565b905060008183611eec91906132d0565b905082600360009054906101000a900473ffffffffffffffffffffffffffffffffffffffff1673ffffffffffffffffffffffffffffffffffffffff1663dd62ed3e33306040518363ffffffff1660e01b8152600401611f4c929190612f96565b602060405180830381865afa158015611f69573d6000803e3d6000fd5b505050506040513d601f19601f82011682018060405250810190611f8d91906132a3565b1015611fce576040517f08c379a0000000000000000000000000000000000000000000000000000000008152600401611fc5906138b6565b60405180910390fd5b82600360009054906101000a900473ffffffffffffffffffffffffffffffffffffffff1673ffffffffffffffffffffffffffffffffffffffff166370a08231336040518263ffffffff1660e01b815260040161202a9190612c2e565b602060405180830381865afa158015612047573d6000803e3d6000fd5b505050506040513d601f19601f8201168201806040525081019061206b91906132a3565b10156120ac576040517f08c379a00000000000000000000000000000000000000000000000000000000081526004016120a390613922565b60405180910390fd5b60008560040160006101000a81548160ff0219169083151502179055506000600860008760010160009054906101000a900473ffffffffffffffffffffffffffffffffffffffff1673ffffffffffffffffffffffffffffffffffffffff1673ffffffffffffffffffffffffffffffffffffffff168152602001908152602001600020600087600201548152602001908152602001600020819055508460010160009054906101000a900473ffffffffffffffffffffffffffffffffffffffff1673ffffffffffffffffffffffffffffffffffffffff166342842e0e853388600201546040518463ffffffff1660e01b81526004016121ac9392919061367d565b600060405180830381600087803b1580156121c657600080fd5b505af11580156121da573d6000803e3d6000fd5b50505050600360009054906101000a900473ffffffffffffffffffffffffffffffffffffffff1673ffffffffffffffffffffffffffffffffffffffff166323b872dd3386846040518463ffffffff1660e01b815260040161223d9392919061367d565b6020604051808303816000875af115801561225c573d6000803e3d6000fd5b505050506040513d601f19601f820116820180604052508101906122809190612feb565b50600360009054906101000a900473ffffffffffffffffffffffffffffffffffffffff1673ffffffffffffffffffffffffffffffffffffffff166323b872dd3330856040518463ffffffff1660e01b81526004016122e09392919061367d565b6020604051808303816000875af11580156122ff573d6000803e3d6000fd5b505050506040513d601f19601f820116820180604052508101906123239190612feb565b508373ffffffffffffffffffffffffffffffffffffffff163373ffffffffffffffffffffffffffffffffffffffff16877f390181b94203e6a571a4a2125c19b547e2eea81bec83cbee4d3911cfcee6d9fa866040516123829190612a4c565b60405180910390a450505050506123976128d4565b50565b606060008267ffffffffffffffff8111156123b8576123b76134d4565b5b6040519080825280602002602001820160405280156123e65781602001602082028036833780820191505090505b5090506000808590505b84866123fc9190613399565b8110801561240c57506006548111155b156124e9576004600082815260200190815260200160002060040160009054906101000a900460ff1680156124a257508673ffffffffffffffffffffffffffffffffffffffff166004600083815260200190815260200160002060010160009054906101000a900473ffffffffffffffffffffffffffffffffffffffff1673ffffffffffffffffffffffffffffffffffffffff16145b156124d657808383815181106124bb576124ba6134a5565b5b60200260200101818152505081806124d290613145565b9250505b80806124e190613145565b9150506123f0565b5081925050509392505050565b6124fe61288e565b60006005600083815260200190815260200160002090508060050160009054906101000a900460ff16612566576040517f08c379a000000000000000000000000000000000000000000000000000000000815260040161255d9061354f565b60405180910390fd5b3373ffffffffffffffffffffffffffffffffffffffff168160000160009054906101000a900473ffffffffffffffffffffffffffffffffffffffff1673ffffffffffffffffffffffffffffffffffffffff16146125f8576040517f08c379a00000000000000000000000000000000000000000000000000000000081526004016125ef9061398e565b60405180910390fd5b8060040154421061263e576040517f08c379a0000000000000000000000000000000000000000000000000000000008152600401612635906139fa565b60405180910390fd5b6000600a600084815260200190815260200160002054905060008260050160006101000a81548160ff0219169083151502179055506000600a600085815260200190815260200160002081905550600360009054906101000a900473ffffffffffffffffffffffffffffffffffffffff1673ffffffffffffffffffffffffffffffffffffffff1663a9059cbb33836040518363ffffffff1660e01b81526004016126e9929190613370565b6020604051808303816000875af1158015612708573d6000803e3d6000fd5b505050506040513d601f19601f8201168201806040525081019061272c9190612feb565b50827fc28b4aed030bfacc245c0501326e1beb8c0ef0d60e4edc21067fdeb52da2a7aa60405160405180910390a250506127646128d4565b50565b61276f6128de565b600073ffffffffffffffffffffffffffffffffffffffff168173ffffffffffffffffffffffffffffffffffffffff16036127e15760006040517f1e4fbdf70000000000000000000000000000000000000000000000000000000081526004016127d89190612c2e565b60405180910390fd5b6127ea81612965565b50565b60008060008060008060006004600089815260200190815260200160002090508060000160009054906101000a900473ffffffffffffffffffffffffffffffffffffffff168160010160009054906101000a900473ffffffffffffffffffffffffffffffffffffffff16826002015483600301548460040160009054906101000a900460ff1685600501549650965096509650965096505091939550919395565b6002600054036128ca576040517f3ee5aeb500000000000000000000000000000000000000000000000000000000815260040160405180910390fd5b6002600081905550565b6001600081905550565b6128e6612a2b565b73ffffffffffffffffffffffffffffffffffffffff16612904610e9c565b73ffffffffffffffffffffffffffffffffffffffff161461296357612927612a2b565b6040517f118cdaa700000000000000000000000000000000000000000000000000000000815260040161295a9190612c2e565b60405180910390fd5b565b6000600160009054906101000a900473ffffffffffffffffffffffffffffffffffffffff16905081600160006101000a81548173ffffffffffffffffffffffffffffffffffffffff021916908373ffffffffffffffffffffffffffffffffffffffff1602179055508173ffffffffffffffffffffffffffffffffffffffff168173ffffffffffffffffffffffffffffffffffffffff167f8be0079c531659141344cd1fd0a4f28419497f9722a3daafe3b4186f6b6457e060405160405180910390a35050565b600033905090565b6000819050919050565b612a4681612a33565b82525050565b6000602082019050612a616000830184612a3d565b92915050565b600080fd5b600073ffffffffffffffffffffffffffffffffffffffff82169050919050565b6000612a9782612a6c565b9050919050565b612aa781612a8c565b8114612ab257600080fd5b50565b600081359050612ac481612a9e565b92915050565b612ad381612a33565b8114612ade57600080fd5b50565b600081359050612af081612aca565b92915050565b600080600060608486031215612b0f57612b0e612a67565b5b6000612b1d86828701612ab5565b9350506020612b2e86828701612ae1565b9250506040612b3f86828701612ae1565b9150509250925092565b600060208284031215612b5f57612b5e612a67565b5b6000612b6d84828501612ae1565b91505092915050565b612b7f81612a8c565b82525050565b60008115159050919050565b612b9a81612b85565b82525050565b600060c082019050612bb56000830189612b76565b612bc26020830188612b76565b612bcf6040830187612a3d565b612bdc6060830186612a3d565b612be96080830185612a3d565b612bf660a0830184612b91565b979650505050505050565b600060208284031215612c1757612c16612a67565b5b6000612c2584828501612ab5565b91505092915050565b6000602082019050612c436000830184612b76565b92915050565b6000819050919050565b6000612c6e612c69612c6484612a6c565b612c49565b612a6c565b9050919050565b6000612c8082612c53565b9050919050565b6000612c9282612c75565b9050919050565b612ca281612c87565b82525050565b6000602082019050612cbd6000830184612c99565b92915050565b600081519050919050565b600082825260208201905092915050565b6000819050602082019050919050565b612cf881612a33565b82525050565b6000612d0a8383612cef565b60208301905092915050565b6000602082019050919050565b6000612d2e82612cc3565b612d388185612cce565b9350612d4383612cdf565b8060005b83811015612d74578151612d5b8882612cfe565b9750612d6683612d16565b925050600181019050612d47565b5085935050505092915050565b60006020820190508181036000830152612d9b8184612d23565b905092915050565b60008060008060808587031215612dbd57612dbc612a67565b5b6000612dcb87828801612ab5565b9450506020612ddc87828801612ae1565b9350506040612ded87828801612ae1565b9250506060612dfe87828801612ae1565b91505092959194509250565b600060c082019050612e1f6000830189612b76565b612e2c6020830188612b76565b612e396040830187612a3d565b612e466060830186612a3d565b612e536080830185612b91565b612e6060a0830184612a3d565b979650505050505050565b600082825260208201905092915050565b7f5072696365206d7573742062652067726561746572207468616e207a65726f00600082015250565b6000612eb2601f83612e6b565b9150612ebd82612e7c565b602082019050919050565b60006020820190508181036000830152612ee181612ea5565b9050919050565b600081519050612ef781612a9e565b92915050565b600060208284031215612f1357612f12612a67565b5b6000612f2184828501612ee8565b91505092915050565b7f4e6f7420746865206f776e6572206f662074686973204e465400000000000000600082015250565b6000612f60601983612e6b565b9150612f6b82612f2a565b602082019050919050565b60006020820190508181036000830152612f8f81612f53565b9050919050565b6000604082019050612fab6000830185612b76565b612fb86020830184612b76565b9392505050565b612fc881612b85565b8114612fd357600080fd5b50565b600081519050612fe581612fbf565b92915050565b60006020828403121561300157613000612a67565b5b600061300f84828501612fd6565b91505092915050565b7f4d61726b6574706c616365206e6f7420617070726f76656420746f206d616e6160008201527f67652074686973204e4654000000000000000000000000000000000000000000602082015250565b6000613074602b83612e6b565b915061307f82613018565b604082019050919050565b600060208201905081810360008301526130a381613067565b9050919050565b7f4e465420616c7265616479206c69737465640000000000000000000000000000600082015250565b60006130e0601283612e6b565b91506130eb826130aa565b602082019050919050565b6000602082019050818103600083015261310f816130d3565b9050919050565b7f4e487b7100000000000000000000000000000000000000000000000000000000600052601160045260246000fd5b600061315082612a33565b91507fffffffffffffffffffffffffffffffffffffffffffffffffffffffffffffffff820361318257613181613116565b5b600182019050919050565b60006040820190506131a26000830185612a3d565b6131af6020830184612a3d565b9392505050565b7f4c697374696e67206973206e6f74206163746976650000000000000000000000600082015250565b60006131ec601583612e6b565b91506131f7826131b6565b602082019050919050565b6000602082019050818103600083015261321b816131df565b9050919050565b7f4e6f74207468652073656c6c6572000000000000000000000000000000000000600082015250565b6000613258600e83612e6b565b915061326382613222565b602082019050919050565b600060208201905081810360008301526132878161324b565b9050919050565b60008151905061329d81612aca565b92915050565b6000602082840312156132b9576132b8612a67565b5b60006132c78482850161328e565b91505092915050565b60006132db82612a33565b91506132e683612a33565b92508282039050818111156132fe576132fd613116565b5b92915050565b7f4e6f206665657320746f20776974686472617700000000000000000000000000600082015250565b600061333a601383612e6b565b915061334582613304565b602082019050919050565b600060208201905081810360008301526133698161332d565b9050919050565b60006040820190506133856000830185612b76565b6133926020830184612a3d565b9392505050565b60006133a482612a33565b91506133af83612a33565b92508282019050808211156133c7576133c6613116565b5b92915050565b7f496e76616c696420746f6b656e20616464726573730000000000000000000000600082015250565b6000613403601583612e6b565b915061340e826133cd565b602082019050919050565b60006020820190508181036000830152613432816133f6565b9050919050565b7f4665652063616e6e6f7420657863656564203130250000000000000000000000600082015250565b600061346f601583612e6b565b915061347a82613439565b602082019050919050565b6000602082019050818103600083015261349e81613462565b9050919050565b7f4e487b7100000000000000000000000000000000000000000000000000000000600052603260045260246000fd5b7f4e487b7100000000000000000000000000000000000000000000000000000000600052604160045260246000fd5b7f4f66666572206973206e6f742061637469766500000000000000000000000000600082015250565b6000613539601383612e6b565b915061354482613503565b602082019050919050565b600060208201905081810360008301526135688161352c565b9050919050565b7f4f66666572206578706972656400000000000000000000000000000000000000600082015250565b60006135a5600d83612e6b565b91506135b08261356f565b602082019050919050565b600060208201905081810360008301526135d481613598565b9050919050565b60006135e682612a33565b91506135f183612a33565b92508282026135ff81612a33565b9150828204841483151761361657613615613116565b5b5092915050565b7f4e487b7100000000000000000000000000000000000000000000000000000000600052601260045260246000fd5b600061365782612a33565b915061366283612a33565b9250826136725761367161361d565b5b828204905092915050565b60006060820190506136926000830186612b76565b61369f6020830185612b76565b6136ac6040830184612a3d565b949350505050565b7f4f6666657220616d6f756e74206d75737420626520677265617465722074686160008201527f6e20300000000000000000000000000000000000000000000000000000000000602082015250565b6000613710602383612e6b565b915061371b826136b4565b604082019050919050565b6000602082019050818103600083015261373f81613703565b9050919050565b7f43616e6e6f74206d616b65206f66666572206f6e20796f7572206f776e204e4660008201527f5400000000000000000000000000000000000000000000000000000000000000602082015250565b60006137a2602183612e6b565b91506137ad82613746565b604082019050919050565b600060208201905081810360008301526137d181613795565b9050919050565b7f45787069726174696f6e2074696d65206d75737420626520696e20746865206660008201527f7574757265000000000000000000000000000000000000000000000000000000602082015250565b6000613834602583612e6b565b915061383f826137d8565b604082019050919050565b6000602082019050818103600083015261386381613827565b9050919050565b7f496e73756666696369656e7420746f6b656e20616c6c6f77616e636500000000600082015250565b60006138a0601c83612e6b565b91506138ab8261386a565b602082019050919050565b600060208201905081810360008301526138cf81613893565b9050919050565b7f496e73756666696369656e7420746f6b656e2062616c616e6365000000000000600082015250565b600061390c601a83612e6b565b9150613917826138d6565b602082019050919050565b6000602082019050818103600083015261393b816138ff565b9050919050565b7f4e6f7420746865206f66666572206d616b657200000000000000000000000000600082015250565b6000613978601383612e6b565b915061398382613942565b602082019050919050565b600060208201905081810360008301526139a78161396b565b9050919050565b7f4f6666657220616c726561647920657870697265640000000000000000000000600082015250565b60006139e4601583612e6b565b91506139ef826139ae565b602082019050919050565b60006020820190508181036000830152613a13816139d7565b905091905056fea2646970667358221220438bd1e7f3445772b9e222fa3f6336103952ed3151b53d927b11bebd7c8fc53464736f6c634300081c0033",
  "linkReferences": {},
  "deployedLinkReferences": {}
}