{
  "_format": "hh-sol-artifact-1",
  "contractName": "GameAssetNFT",
  "sourceName": "contracts/GameAssetNFT.sol",
  "abi": [
    {
      "inputs": [
        {
          "internalType": "string",
          "name": "baseURI",
          "type": "string"
        }
      ],
      "stateMutability": "nonpayable",
      "type": "constructor"
    },
    {
      "inputs": [],
      "name": "ERC721EnumerableForbiddenBatchMint",
      "type": "error"
    },
    {
      "inputs": [
        {
          "internalType": "address",
          "name": "sender",
          "type": "address"
        },
        {
          "internalType": "uint256",
          "name": "tokenId",
          "type": "uint256"
        },
        {
          "internalType": "address",
          "name": "owner",
          "type": "address"
        }
      ],
      "name": "ERC721IncorrectOwner",
      "type": "error"
    },
    {
      "inputs": [
        {
          "internalType": "address",
          "name": "operator",
          "type": "address"
        },
        {
          "internalType": "uint256",
          "name": "tokenId",
          "type": "uint256"
        }
      ],
      "name": "ERC721InsufficientApproval",
      "type": "error"
    },
    {
      "inputs": [
        {
          "internalType": "address",
          "name": "approver",
          "type": "address"
        }
      ],
      "name": "ERC721InvalidApprover",
      "type": "error"
    },
    {
      "inputs": [
        {
          "internalType": "address",
          "name": "operator",
          "type": "address"
        }
      ],
      "name": "ERC721InvalidOperator",
      "type": "error"
    },
    {
      "inputs": [
        {
          "internalType": "address",
          "name": "owner",
          "type": "address"
        }
      ],
      "name": "ERC721InvalidOwner",
      "type": "error"
    },
    {
      "inputs": [
        {
          "internalType": "address",
          "name": "receiver",
          "type": "address"
        }
      ],
      "name": "ERC721InvalidReceiver",
      "type": "error"
    },
    {
      "inputs": [
        {
          "internalType": "address",
          "name": "sender",
          "type": "address"
        }
      ],
      "name": "ERC721InvalidSender",
      "type": "error"
    },
    {
      "inputs": [
        {
          "internalType": "uint256",
          "name": "tokenId",
          "type": "uint256"
        }
      ],
      "name": "ERC721NonexistentToken",
      "type": "error"
    },
    {
      "inputs": [
        {
          "internalType": "address",
          "name": "owner",
          "type": "address"
        },
        {
          "internalType": "uint256",
          "name": "index",
          "type": "uint256"
        }
      ],
      "name": "ERC721OutOfBoundsIndex",
      "type": "error"
    },
    {
      "inputs": [
        {
          "internalType": "address",
          "name": "owner",
          "type": "address"
        }
      ],
      "name": "OwnableInvalidOwner",
      "type": "error"
    },
    {
      "inputs": [
        {
          "internalType": "address",
          "name": "account",
          "type": "address"
        }
      ],
      "name": "OwnableUnauthorizedAccount",
      "type": "error"
    },
    {
      "inputs": [],
      "name": "ReentrancyGuardReentrantCall",
      "type": "error"
    },
    {
      "anonymous": false,
      "inputs": [
        {
          "indexed": true,
          "internalType": "address",
          "name": "owner",
          "type": "address"
        },
        {
          "indexed": true,
          "internalType": "address",
          "name": "approved",
          "type": "address"
        },
        {
          "indexed": true,
          "internalType": "uint256",
          "name": "tokenId",
          "type": "uint256"
        }
      ],
      "name": "Approval",
      "type": "event"
    },
    {
      "anonymous": false,
      "inputs": [
        {
          "indexed": true,
          "internalType": "address",
          "name": "owner",
          "type": "address"
        },
        {
          "indexed": true,
          "internalType": "address",
          "name": "operator",
          "type": "address"
        },
        {
          "indexed": false,
          "internalType": "bool",
          "name": "approved",
          "type": "bool"
        }
      ],
      "name": "ApprovalForAll",
      "type": "event"
    },
    {
      "anonymous": false,
      "inputs": [
        {
          "indexed": true,
          "internalType": "address",
          "name": "owner",
          "type": "address"
        },
        {
          "indexed": true,
          "internalType": "uint256",
          "name": "tokenId",
          "type": "uint256"
        },
        {
          "indexed": false,
          "internalType": "string",
          "name": "assetType",
          "type": "string"
        },
        {
          "indexed": false,
          "internalType": "uint8",
          "name": "rarityLevel",
          "type": "uint8"
        }
      ],
      "name": "AssetMinted",
      "type": "event"
    },
    {
      "anonymous": false,
      "inputs": [
        {
          "indexed": true,
          "internalType": "uint256",
          "name": "tokenId",
          "type": "uint256"
        },
        {
          "indexed": false,
          "internalType": "uint8",
          "name": "oldRarity",
          "type": "uint8"
        },
        {
          "indexed": false,
          "internalType": "uint8",
          "name": "newRarity",
          "type": "uint8"
        }
      ],
      "name": "AssetUpgraded",
      "type": "event"
    },
    {
      "anonymous": false,
      "inputs": [
        {
          "indexed": true,
          "internalType": "uint256",
          "name": "tokenId",
          "type": "uint256"
        },
        {
          "indexed": true,
          "internalType": "address",
          "name": "user",
          "type": "address"
        }
      ],
      "name": "AssetUsed",
      "type": "event"
    },
    {
      "anonymous": false,
      "inputs": [
        {
          "indexed": false,
          "internalType": "uint256",
          "name": "_fromTokenId",
          "type": "uint256"
        },
        {
          "indexed": false,
          "internalType": "uint256",
          "name": "_toTokenId",
          "type": "uint256"
        }
      ],
      "name": "BatchMetadataUpdate",
      "type": "event"
    },
    {
      "anonymous": false,
      "inputs": [
        {
          "indexed": false,
          "internalType": "uint256",
          "name": "_tokenId",
          "type": "uint256"
        }
      ],
      "name": "MetadataUpdate",
      "type": "event"
    },
    {
      "anonymous": false,
      "inputs": [
        {
          "indexed": true,
          "internalType": "address",
          "name": "previousOwner",
          "type": "address"
        },
        {
          "indexed": true,
          "internalType": "address",
          "name": "newOwner",
          "type": "address"
        }
      ],
      "name": "OwnershipTransferred",
      "type": "event"
    },
    {
      "anonymous": false,
      "inputs": [
        {
          "indexed": true,
          "internalType": "address",
          "name": "from",
          "type": "address"
        },
        {
          "indexed": true,
          "internalType": "address",
          "name": "to",
          "type": "address"
        },
        {
          "indexed": true,
          "internalType": "uint256",
          "name": "tokenId",
          "type": "uint256"
        }
      ],
      "name": "Transfer",
      "type": "event"
    },
    {
      "inputs": [
        {
          "internalType": "address",
          "name": "to",
          "type": "address"
        },
        {
          "internalType": "uint256",
          "name": "tokenId",
          "type": "uint256"
        }
      ],
      "name": "approve",
      "outputs": [],
      "stateMutability": "nonpayable",
      "type": "function"
    },
    {
      "inputs": [
        {
          "internalType": "address",
          "name": "owner",
          "type": "address"
        }
      ],
      "name": "balanceOf",
      "outputs": [
        {
          "internalType": "uint256",
          "name": "",
          "type": "uint256"
        }
      ],
      "stateMutability": "view",
      "type": "function"
    },
    {
      "inputs": [
        {
          "internalType": "uint256",
          "name": "tokenId",
          "type": "uint256"
        }
      ],
      "name": "getApproved",
      "outputs": [
        {
          "internalType": "address",
          "name": "",
          "type": "address"
        }
      ],
      "stateMutability": "view",
      "type": "function"
    },
    {
      "inputs": [
        {
          "internalType": "uint256",
          "name": "tokenId",
          "type": "uint256"
        }
      ],
      "name": "getAssetAttributes",
      "outputs": [
        {
          "internalType": "string",
          "name": "",
          "type": "string"
        },
        {
          "internalType": "uint8",
          "name": "",
          "type": "uint8"
        },
        {
          "internalType": "bytes32",
          "name": "",
          "type": "bytes32"
        },
        {
          "internalType": "bool",
          "name": "",
          "type": "bool"
        },
        {
          "internalType": "uint256",
          "name": "",
          "type": "uint256"
        }
      ],
      "stateMutability": "view",
      "type": "function"
    },
    {
      "inputs": [
        {
          "internalType": "string",
          "name": "assetType",
          "type": "string"
        }
      ],
      "name": "getAssetCountByType",
      "outputs": [
        {
          "internalType": "uint256",
          "name": "",
          "type": "uint256"
        }
      ],
      "stateMutability": "view",
      "type": "function"
    },
    {
      "inputs": [
        {
          "internalType": "address",
          "name": "owner",
          "type": "address"
        },
        {
          "internalType": "string",
          "name": "assetType",
          "type": "string"
        }
      ],
      "name": "getTokensByTypeAndOwner",
      "outputs": [
        {
          "internalType": "uint256[]",
          "name": "",
          "type": "uint256[]"
        }
      ],
      "stateMutability": "view",
      "type": "function"
    },
    {
      "inputs": [
        {
          "internalType": "address",
          "name": "owner",
          "type": "address"
        }
      ],
      "name": "getTokensOwnedBy",
      "outputs": [
        {
          "internalType": "uint256[]",
          "name": "",
          "type": "uint256[]"
        }
      ],
      "stateMutability": "view",
      "type": "function"
    },
    {
      "inputs": [
        {
          "internalType": "address",
          "name": "owner",
          "type": "address"
        },
        {
          "internalType": "address",
          "name": "operator",
          "type": "address"
        }
      ],
      "name": "isApprovedForAll",
      "outputs": [
        {
          "internalType": "bool",
          "name": "",
          "type": "bool"
        }
      ],
      "stateMutability": "view",
      "type": "function"
    },
    {
      "inputs": [
        {
          "internalType": "address",
          "name": "recipient",
          "type": "address"
        },
        {
          "internalType": "string",
          "name": "metadataURI",
          "type": "string"
        },
        {
          "internalType": "string",
          "name": "assetType",
          "type": "string"
        },
        {
          "internalType": "uint8",
          "name": "rarityLevel",
          "type": "uint8"
        },
        {
          "internalType": "bytes32",
          "name": "gamePropertiesHash",
          "type": "bytes32"
        }
      ],
      "name": "mintGameAsset",
      "outputs": [
        {
          "internalType": "uint256",
          "name": "",
          "type": "uint256"
        }
      ],
      "stateMutability": "nonpayable",
      "type": "function"
    },
    {
      "inputs": [],
      "name": "name",
      "outputs": [
        {
          "internalType": "string",
          "name": "",
          "type": "string"
        }
      ],
      "stateMutability": "view",
      "type": "function"
    },
    {
      "inputs": [],
      "name": "owner",
      "outputs": [
        {
          "internalType": "address",
          "name": "",
          "type": "address"
        }
      ],
      "stateMutability": "view",
      "type": "function"
    },
    {
      "inputs": [
        {
          "internalType": "uint256",
          "name": "tokenId",
          "type": "uint256"
        }
      ],
      "name": "ownerOf",
      "outputs": [
        {
          "internalType": "address",
          "name": "",
          "type": "address"
        }
      ],
      "stateMutability": "view",
      "type": "function"
    },
    {
      "inputs": [],
      "name": "renounceOwnership",
      "outputs": [],
      "stateMutability": "nonpayable",
      "type": "function"
    },
    {
      "inputs": [
        {
          "internalType": "uint256",
          "name": "tokenId",
          "type": "uint256"
        }
      ],
      "name": "resetAssetCooldown",
      "outputs": [],
      "stateMutability": "nonpayable",
      "type": "function"
    },
    {
      "inputs": [
        {
          "internalType": "address",
          "name": "from",
          "type": "address"
        },
        {
          "internalType": "address",
          "name": "to",
          "type": "address"
        },
        {
          "internalType": "uint256",
          "name": "tokenId",
          "type": "uint256"
        }
      ],
      "name": "safeTransferFrom",
      "outputs": [],
      "stateMutability": "nonpayable",
      "type": "function"
    },
    {
      "inputs": [
        {
          "internalType": "address",
          "name": "from",
          "type": "address"
        },
        {
          "internalType": "address",
          "name": "to",
          "type": "address"
        },
        {
          "internalType": "uint256",
          "name": "tokenId",
          "type": "uint256"
        },
        {
          "internalType": "bytes",
          "name": "data",
          "type": "bytes"
        }
      ],
      "name": "safeTransferFrom",
      "outputs": [],
      "stateMutability": "nonpayable",
      "type": "function"
    },
    {
      "inputs": [
        {
          "internalType": "address",
          "name": "operator",
          "type": "address"
        },
        {
          "internalType": "bool",
          "name": "approved",
          "type": "bool"
        }
      ],
      "name": "setApprovalForAll",
      "outputs": [],
      "stateMutability": "nonpayable",
      "type": "function"
    },
    {
      "inputs": [
        {
          "internalType": "string",
          "name": "baseURI",
          "type": "string"
        }
      ],
      "name": "setBaseURI",
      "outputs": [],
      "stateMutability": "nonpayable",
      "type": "function"
    },
    {
      "inputs": [
        {
          "internalType": "bytes4",
          "name": "interfaceId",
          "type": "bytes4"
        }
      ],
      "name": "supportsInterface",
      "outputs": [
        {
          "internalType": "bool",
          "name": "",
          "type": "bool"
        }
      ],
      "stateMutability": "view",
      "type": "function"
    },
    {
      "inputs": [],
      "name": "symbol",
      "outputs": [
        {
          "internalType": "string",
          "name": "",
          "type": "string"
        }
      ],
      "stateMutability": "view",
      "type": "function"
    },
    {
      "inputs": [
        {
          "internalType": "uint256",
          "name": "index",
          "type": "uint256"
        }
      ],
      "name": "tokenByIndex",
      "outputs": [
        {
          "internalType": "uint256",
          "name": "",
          "type": "uint256"
        }
      ],
      "stateMutability": "view",
      "type": "function"
    },
    {
      "inputs": [
        {
          "internalType": "address",
          "name": "owner",
          "type": "address"
        },
        {
          "internalType": "uint256",
          "name": "index",
          "type": "uint256"
        }
      ],
      "name": "tokenOfOwnerByIndex",
      "outputs": [
        {
          "internalType": "uint256",
          "name": "",
          "type": "uint256"
        }
      ],
      "stateMutability": "view",
      "type": "function"
    },
    {
      "inputs": [
        {
          "internalType": "uint256",
          "name": "tokenId",
          "type": "uint256"
        }
      ],
      "name": "tokenURI",
      "outputs": [
        {
          "internalType": "string",
          "name": "",
          "type": "string"
        }
      ],
      "stateMutability": "view",
      "type": "function"
    },
    {
      "inputs": [],
      "name": "totalSupply",
      "outputs": [
        {
          "internalType": "uint256",
          "name": "",
          "type": "uint256"
        }
      ],
      "stateMutability": "view",
      "type": "function"
    },
    {
      "inputs": [
        {
          "internalType": "address",
          "name": "from",
          "type": "address"
        },
        {
          "internalType": "address",
          "name": "to",
          "type": "address"
        },
        {
          "internalType": "uint256",
          "name": "tokenId",
          "type": "uint256"
        }
      ],
      "name": "transferFrom",
      "outputs": [],
      "stateMutability": "nonpayable",
      "type": "function"
    },
    {
      "inputs": [
        {
          "internalType": "address",
          "name": "newOwner",
          "type": "address"
        }
      ],
      "name": "transferOwnership",
      "outputs": [],
      "stateMutability": "nonpayable",
      "type": "function"
    },
    {
      "inputs": [
        {
          "internalType": "uint256",
          "name": "tokenId",
          "type": "uint256"
        },
        {
          "internalType": "uint8",
          "name": "newRarityLevel",
          "type": "uint8"
        }
      ],
      "name": "upgradeAssetRarity",
      "outputs": [],
      "stateMutability": "nonpayable",
      "type": "function"
    },
    {
      "inputs": [
        {
          "internalType": "uint256",
          "name": "tokenId",
          "type": "uint256"
        }
      ],
      "name": "useAsset",
      "outputs": [],
      "stateMutability": "nonpayable",
      "type": "function"
    }
  ],
  "bytecode": "0x608060405234801561001057600080fd5b506040516146133803806146138339818101604052810190610032919061039c565b336040518060400160405280600c81526020017f47616d6541737365744e465400000000000000000000000000000000000000008152506040518060400160405280600481526020017f47414d450000000000000000000000000000000000000000000000000000000081525081600090816100ae9190610606565b5080600190816100be9190610606565b505050600073ffffffffffffffffffffffffffffffffffffffff168173ffffffffffffffffffffffffffffffffffffffff16036101335760006040517f1e4fbdf700000000000000000000000000000000000000000000000000000000815260040161012a9190610719565b60405180910390fd5b6101428161016160201b60201c565b506001600c8190555080600e908161015a9190610606565b5050610734565b6000600b60009054906101000a900473ffffffffffffffffffffffffffffffffffffffff16905081600b60006101000a81548173ffffffffffffffffffffffffffffffffffffffff021916908373ffffffffffffffffffffffffffffffffffffffff1602179055508173ffffffffffffffffffffffffffffffffffffffff168173ffffffffffffffffffffffffffffffffffffffff167f8be0079c531659141344cd1fd0a4f28419497f9722a3daafe3b4186f6b6457e060405160405180910390a35050565b6000604051905090565b600080fd5b600080fd5b600080fd5b600080fd5b6000601f19601f8301169050919050565b7f4e487b7100000000000000000000000000000000000000000000000000000000600052604160045260246000fd5b61028e82610245565b810181811067ffffffffffffffff821117156102ad576102ac610256565b5b80604052505050565b60006102c0610227565b90506102cc8282610285565b919050565b600067ffffffffffffffff8211156102ec576102eb610256565b5b6102f582610245565b9050602081019050919050565b60005b83811015610320578082015181840152602081019050610305565b60008484015250505050565b600061033f61033a846102d1565b6102b6565b90508281526020810184848401111561035b5761035a610240565b5b610366848285610302565b509392505050565b600082601f8301126103835761038261023b565b5b815161039384826020860161032c565b91505092915050565b6000602082840312156103b2576103b1610231565b5b600082015167ffffffffffffffff8111156103d0576103cf610236565b5b6103dc8482850161036e565b91505092915050565b600081519050919050565b7f4e487b7100000000000000000000000000000000000000000000000000000000600052602260045260246000fd5b6000600282049050600182168061043757607f821691505b60208210810361044a576104496103f0565b5b50919050565b60008190508160005260206000209050919050565b60006020601f8301049050919050565b600082821b905092915050565b6000600883026104b27fffffffffffffffffffffffffffffffffffffffffffffffffffffffffffffffff82610475565b6104bc8683610475565b95508019841693508086168417925050509392505050565b6000819050919050565b6000819050919050565b60006105036104fe6104f9846104d4565b6104de565b6104d4565b9050919050565b6000819050919050565b61051d836104e8565b6105316105298261050a565b848454610482565b825550505050565b600090565b610546610539565b610551818484610514565b505050565b5b818110156105755761056a60008261053e565b600181019050610557565b5050565b601f8211156105ba5761058b81610450565b61059484610465565b810160208510156105a3578190505b6105b76105af85610465565b830182610556565b50505b505050565b600082821c905092915050565b60006105dd600019846008026105bf565b1980831691505092915050565b60006105f683836105cc565b9150826002028217905092915050565b61060f826103e5565b67ffffffffffffffff81111561062857610627610256565b5b610632825461041f565b61063d828285610579565b600060209050601f831160018114610670576000841561065e578287015190505b61066885826105ea565b8655506106d0565b601f19841661067e86610450565b60005b828110156106a657848901518255600182019150602085019450602081019050610681565b868310156106c357848901516106bf601f8916826105cc565b8355505b6001600288020188555050505b505050505050565b600073ffffffffffffffffffffffffffffffffffffffff82169050919050565b6000610703826106d8565b9050919050565b610713816106f8565b82525050565b600060208201905061072e600083018461070a565b92915050565b613ed0806107436000396000f3fe608060405234801561001057600080fd5b50600436106101c45760003560e01c80635ecc778b116100f9578063a22cb46511610097578063c87b56dd11610071578063c87b56dd1461053f578063e985e9c51461056f578063f2fde38b1461059f578063fca3bba1146105bb576101c4565b8063a22cb465146104d3578063b88d4fde146104ef578063c58b54ef1461050b576101c4565b8063715018a6116100d3578063715018a61461047157806382061b441461047b5780638da5cb5b1461049757806395d89b41146104b5576101c4565b80635ecc778b146103e15780636352211e1461041157806370a0823114610441576101c4565b806334ae286f116101665780634b6a633b116101405780634b6a633b146103495780634f6ccce71461037957806355f804b3146103a95780635c9a6a72146103c5576101c4565b806334ae286f146102cd5780633d4392c0146102fd57806342842e0e1461032d576101c4565b8063095ea7b3116101a2578063095ea7b31461024757806318160ddd1461026357806323b872dd146102815780632f745c591461029d576101c4565b806301ffc9a7146101c957806306fdde03146101f9578063081812fc14610217575b600080fd5b6101e360048036038101906101de9190612c27565b6105d7565b6040516101f09190612c6f565b60405180910390f35b6102016105e9565b60405161020e9190612d1a565b60405180910390f35b610231600480360381019061022c9190612d72565b61067b565b60405161023e9190612de0565b60405180910390f35b610261600480360381019061025c9190612e27565b610697565b005b61026b6106ad565b6040516102789190612e76565b60405180910390f35b61029b60048036038101906102969190612e91565b6106ba565b005b6102b760048036038101906102b29190612e27565b6107bc565b6040516102c49190612e76565b60405180910390f35b6102e760048036038101906102e29190613019565b610865565b6040516102f49190613133565b60405180910390f35b61031760048036038101906103129190613155565b6109fa565b6040516103249190613133565b60405180910390f35b61034760048036038101906103429190612e91565b610afd565b005b610363600480360381019061035e9190613182565b610b1d565b6040516103709190612e76565b60405180910390f35b610393600480360381019061038e9190612d72565b610b45565b6040516103a09190612e76565b60405180910390f35b6103c360048036038101906103be9190613182565b610bbb565b005b6103df60048036038101906103da9190613204565b610bd6565b005b6103fb60048036038101906103f6919061327a565b610d27565b6040516104089190612e76565b60405180910390f35b61042b60048036038101906104269190612d72565b610ef9565b6040516104389190612de0565b60405180910390f35b61045b60048036038101906104569190613155565b610f0b565b6040516104689190612e76565b60405180910390f35b610479610fc5565b005b61049560048036038101906104909190612d72565b610fd9565b005b61049f61113c565b6040516104ac9190612de0565b60405180910390f35b6104bd611166565b6040516104ca9190612d1a565b60405180910390f35b6104ed60048036038101906104e89190613359565b6111f8565b005b6105096004803603810190610504919061343a565b61120e565b005b61052560048036038101906105209190612d72565b611233565b6040516105369594939291906134db565b60405180910390f35b61055960048036038101906105549190612d72565b611361565b6040516105669190612d1a565b60405180910390f35b61058960048036038101906105849190613535565b611373565b6040516105969190612c6f565b60405180910390f35b6105b960048036038101906105b49190613155565b611407565b005b6105d560048036038101906105d09190612d72565b61148d565b005b60006105e2826114ce565b9050919050565b6060600080546105f8906135a4565b80601f0160208091040260200160405190810160405280929190818152602001828054610624906135a4565b80156106715780601f1061064657610100808354040283529160200191610671565b820191906000526020600020905b81548152906001019060200180831161065457829003601f168201915b5050505050905090565b600061068682611548565b50610690826115d0565b9050919050565b6106a982826106a461160d565b611615565b5050565b6000600980549050905090565b600073ffffffffffffffffffffffffffffffffffffffff168273ffffffffffffffffffffffffffffffffffffffff160361072c5760006040517f64a0ae920000000000000000000000000000000000000000000000000000000081526004016107239190612de0565b60405180910390fd5b6000610740838361073b61160d565b611627565b90508373ffffffffffffffffffffffffffffffffffffffff168173ffffffffffffffffffffffffffffffffffffffff16146107b6578382826040517f64283d7b0000000000000000000000000000000000000000000000000000000081526004016107ad939291906135d5565b60405180910390fd5b50505050565b60006107c783610f0b565b821061080c5782826040517fa57d13dc00000000000000000000000000000000000000000000000000000000815260040161080392919061360c565b60405180910390fd5b600760008473ffffffffffffffffffffffffffffffffffffffff1673ffffffffffffffffffffffffffffffffffffffff168152602001908152602001600020600083815260200190815260200160002054905092915050565b60606000610872846109fa565b90506000805b82518110156108ec578480519060200120600f60008584815181106108a05761089f613635565b5b602002602001015181526020019081526020016000206040516108c39190613707565b6040518091039020036108df5781806108db9061374d565b9250505b8080600101915050610878565b5060008167ffffffffffffffff81111561090957610908612eee565b5b6040519080825280602002602001820160405280156109375781602001602082028036833780820191505090505b5090506000805b84518110156109ec578680519060200120600f600087848151811061096657610965613635565b5b602002602001015181526020019081526020016000206040516109899190613707565b6040518091039020036109df578481815181106109a9576109a8613635565b5b60200260200101518383815181106109c4576109c3613635565b5b60200260200101818152505081806109db9061374d565b9250505b808060010191505061093e565b508194505050505092915050565b60606000610a0783610f0b565b905060008103610a6357600067ffffffffffffffff811115610a2c57610a2b612eee565b5b604051908082528060200260200182016040528015610a5a5781602001602082028036833780820191505090505b50915050610af8565b60008167ffffffffffffffff811115610a7f57610a7e612eee565b5b604051908082528060200260200182016040528015610aad5781602001602082028036833780820191505090505b50905060005b82811015610af157610ac585826107bc565b828281518110610ad857610ad7613635565b5b6020026020010181815250508080600101915050610ab3565b5080925050505b919050565b610b188383836040518060200160405280600081525061120e565b505050565b6000601482604051610b2f91906137d1565b9081526020016040518091039020549050919050565b6000610b4f6106ad565b8210610b95576000826040517fa57d13dc000000000000000000000000000000000000000000000000000000008152600401610b8c92919061360c565b60405180910390fd5b60098281548110610ba957610ba8613635565b5b90600052602060002001549050919050565b610bc361163d565b80600e9081610bd29190613994565b5050565b610bde61163d565b610be782611548565b506010600083815260200190815260200160002060009054906101000a900460ff1660ff168160ff1611610c50576040517f08c379a0000000000000000000000000000000000000000000000000000000008152600401610c4790613ad8565b60405180910390fd5b600a8160ff161115610c97576040517f08c379a0000000000000000000000000000000000000000000000000000000008152600401610c8e90613b44565b60405180910390fd5b60006010600084815260200190815260200160002060009054906101000a900460ff169050816010600085815260200190815260200160002060006101000a81548160ff021916908360ff160217905550827f364c6a56e43a35162ed4da0c9e4708909ceed58f30c0753400c29641454933da8284604051610d1a929190613b64565b60405180910390a2505050565b6000610d316116c4565b60008360ff16118015610d485750600a8360ff1611155b610d87576040517f08c379a0000000000000000000000000000000000000000000000000000000008152600401610d7e90613bd9565b60405180910390fd5b6000600d6000815480929190610d9c9061374d565b919050559050610dac878261170a565b610db68187611728565b84600f60008381526020019081526020016000209081610dd69190613994565b50836010600083815260200190815260200160002060006101000a81548160ff021916908360ff16021790555082601160008381526020019081526020016000208190555060016012600083815260200190815260200160002060006101000a81548160ff021916908315150217905550426013600083815260200190815260200160002081905550601485604051610e6f91906137d1565b90815260200160405180910390206000815480929190610e8e9061374d565b9190505550808773ffffffffffffffffffffffffffffffffffffffff167f53ca3c5739c597fa078971c2596ecb844be98cb174886f8d0d78bf7e3de4a1918787604051610edc929190613bf9565b60405180910390a380915050610ef0611784565b95945050505050565b6000610f0482611548565b9050919050565b60008073ffffffffffffffffffffffffffffffffffffffff168273ffffffffffffffffffffffffffffffffffffffff1603610f7e5760006040517f89c62b64000000000000000000000000000000000000000000000000000000008152600401610f759190612de0565b60405180910390fd5b600360008373ffffffffffffffffffffffffffffffffffffffff1673ffffffffffffffffffffffffffffffffffffffff168152602001908152602001600020549050919050565b610fcd61163d565b610fd7600061178e565b565b610fe16116c4565b610fea81611548565b503373ffffffffffffffffffffffffffffffffffffffff1661100b82610ef9565b73ffffffffffffffffffffffffffffffffffffffff1614611061576040517f08c379a000000000000000000000000000000000000000000000000000000000815260040161105890613c75565b60405180910390fd5b6012600082815260200190815260200160002060009054906101000a900460ff166110c1576040517f08c379a00000000000000000000000000000000000000000000000000000000081526004016110b890613ce1565b60405180910390fd5b60006012600083815260200190815260200160002060006101000a81548160ff0219169083151502179055503373ffffffffffffffffffffffffffffffffffffffff16817f52ffae8add2505c9b20d2ace83b7ede346472b20d88199d03b0781bd2d040e8760405160405180910390a3611139611784565b50565b6000600b60009054906101000a900473ffffffffffffffffffffffffffffffffffffffff16905090565b606060018054611175906135a4565b80601f01602080910402602001604051908101604052809291908181526020018280546111a1906135a4565b80156111ee5780601f106111c3576101008083540402835291602001916111ee565b820191906000526020600020905b8154815290600101906020018083116111d157829003601f168201915b5050505050905090565b61120a61120361160d565b8383611854565b5050565b6112198484846106ba565b61122d61122461160d565b858585856119c3565b50505050565b606060008060008061124486611548565b50600f60008781526020019081526020016000206010600088815260200190815260200160002060009054906101000a900460ff166011600089815260200190815260200160002054601260008a815260200190815260200160002060009054906101000a900460ff16601360008b8152602001908152602001600020548480546112ce906135a4565b80601f01602080910402602001604051908101604052809291908181526020018280546112fa906135a4565b80156113475780601f1061131c57610100808354040283529160200191611347565b820191906000526020600020905b81548152906001019060200180831161132a57829003601f168201915b505050505094509450945094509450945091939590929450565b606061136c82611b74565b9050919050565b6000600560008473ffffffffffffffffffffffffffffffffffffffff1673ffffffffffffffffffffffffffffffffffffffff16815260200190815260200160002060008373ffffffffffffffffffffffffffffffffffffffff1673ffffffffffffffffffffffffffffffffffffffff16815260200190815260200160002060009054906101000a900460ff16905092915050565b61140f61163d565b600073ffffffffffffffffffffffffffffffffffffffff168173ffffffffffffffffffffffffffffffffffffffff16036114815760006040517f1e4fbdf70000000000000000000000000000000000000000000000000000000081526004016114789190612de0565b60405180910390fd5b61148a8161178e565b50565b61149561163d565b61149e81611548565b5060016012600083815260200190815260200160002060006101000a81548160ff02191690831515021790555050565b60007f780e9d63000000000000000000000000000000000000000000000000000000007bffffffffffffffffffffffffffffffffffffffffffffffffffffffff1916827bffffffffffffffffffffffffffffffffffffffffffffffffffffffff19161480611541575061154082611c87565b5b9050919050565b60008061155483611ce8565b9050600073ffffffffffffffffffffffffffffffffffffffff168173ffffffffffffffffffffffffffffffffffffffff16036115c757826040517f7e2732890000000000000000000000000000000000000000000000000000000081526004016115be9190612e76565b60405180910390fd5b80915050919050565b60006004600083815260200190815260200160002060009054906101000a900473ffffffffffffffffffffffffffffffffffffffff169050919050565b600033905090565b6116228383836001611d25565b505050565b6000611634848484611eea565b90509392505050565b61164561160d565b73ffffffffffffffffffffffffffffffffffffffff1661166361113c565b73ffffffffffffffffffffffffffffffffffffffff16146116c25761168661160d565b6040517f118cdaa70000000000000000000000000000000000000000000000000000000081526004016116b99190612de0565b60405180910390fd5b565b6002600c5403611700576040517f3ee5aeb500000000000000000000000000000000000000000000000000000000815260040160405180910390fd5b6002600c81905550565b611724828260405180602001604052806000815250612007565b5050565b806006600084815260200190815260200160002090816117489190613994565b507ff8e1a15aba9398e019f0b49df1a4fde98ee17ae345cb5f6b5e2c27f5033e8ce7826040516117789190612e76565b60405180910390a15050565b6001600c81905550565b6000600b60009054906101000a900473ffffffffffffffffffffffffffffffffffffffff16905081600b60006101000a81548173ffffffffffffffffffffffffffffffffffffffff021916908373ffffffffffffffffffffffffffffffffffffffff1602179055508173ffffffffffffffffffffffffffffffffffffffff168173ffffffffffffffffffffffffffffffffffffffff167f8be0079c531659141344cd1fd0a4f28419497f9722a3daafe3b4186f6b6457e060405160405180910390a35050565b600073ffffffffffffffffffffffffffffffffffffffff168273ffffffffffffffffffffffffffffffffffffffff16036118c557816040517f5b08ba180000000000000000000000000000000000000000000000000000000081526004016118bc9190612de0565b60405180910390fd5b80600560008573ffffffffffffffffffffffffffffffffffffffff1673ffffffffffffffffffffffffffffffffffffffff16815260200190815260200160002060008473ffffffffffffffffffffffffffffffffffffffff1673ffffffffffffffffffffffffffffffffffffffff16815260200190815260200160002060006101000a81548160ff0219169083151502179055508173ffffffffffffffffffffffffffffffffffffffff168373ffffffffffffffffffffffffffffffffffffffff167f17307eab39ab6107e8899845ad3d59bd9653f200f220920489ca2b5937696c31836040516119b69190612c6f565b60405180910390a3505050565b60008373ffffffffffffffffffffffffffffffffffffffff163b1115611b6d578273ffffffffffffffffffffffffffffffffffffffff1663150b7a02868685856040518563ffffffff1660e01b8152600401611a229493929190613d56565b6020604051808303816000875af1925050508015611a5e57506040513d601f19601f82011682018060405250810190611a5b9190613db7565b60015b611ae2573d8060008114611a8e576040519150601f19603f3d011682016040523d82523d6000602084013e611a93565b606091505b506000815103611ada57836040517f64a0ae92000000000000000000000000000000000000000000000000000000008152600401611ad19190612de0565b60405180910390fd5b805181602001fd5b63150b7a0260e01b7bffffffffffffffffffffffffffffffffffffffffffffffffffffffff1916817bffffffffffffffffffffffffffffffffffffffffffffffffffffffff191614611b6b57836040517f64a0ae92000000000000000000000000000000000000000000000000000000008152600401611b629190612de0565b60405180910390fd5b505b5050505050565b6060611b7f82611548565b506000600660008481526020019081526020016000208054611ba0906135a4565b80601f0160208091040260200160405190810160405280929190818152602001828054611bcc906135a4565b8015611c195780601f10611bee57610100808354040283529160200191611c19565b820191906000526020600020905b815481529060010190602001808311611bfc57829003601f168201915b505050505090506000611c2a61202b565b90506000815103611c3f578192505050611c82565b600082511115611c74578082604051602001611c5c929190613de4565b60405160208183030381529060405292505050611c82565b611c7d846120bd565b925050505b919050565b6000634906490660e01b7bffffffffffffffffffffffffffffffffffffffffffffffffffffffff1916827bffffffffffffffffffffffffffffffffffffffffffffffffffffffff19161480611ce15750611ce082612126565b5b9050919050565b60006002600083815260200190815260200160002060009054906101000a900473ffffffffffffffffffffffffffffffffffffffff169050919050565b8080611d5e5750600073ffffffffffffffffffffffffffffffffffffffff168273ffffffffffffffffffffffffffffffffffffffff1614155b15611e92576000611d6e84611548565b9050600073ffffffffffffffffffffffffffffffffffffffff168373ffffffffffffffffffffffffffffffffffffffff1614158015611dd957508273ffffffffffffffffffffffffffffffffffffffff168173ffffffffffffffffffffffffffffffffffffffff1614155b8015611dec5750611dea8184611373565b155b15611e2e57826040517fa9fbf51f000000000000000000000000000000000000000000000000000000008152600401611e259190612de0565b60405180910390fd5b8115611e9057838573ffffffffffffffffffffffffffffffffffffffff168273ffffffffffffffffffffffffffffffffffffffff167f8c5be1e5ebec7d5bd14f71427d1e84f3dd0314c0f7b2291e5b200ac8c7c3b92560405160405180910390a45b505b836004600085815260200190815260200160002060006101000a81548173ffffffffffffffffffffffffffffffffffffffff021916908373ffffffffffffffffffffffffffffffffffffffff16021790555050505050565b600080611ef8858585612208565b9050600073ffffffffffffffffffffffffffffffffffffffff168173ffffffffffffffffffffffffffffffffffffffff1603611f3c57611f3784612422565b611f7b565b8473ffffffffffffffffffffffffffffffffffffffff168173ffffffffffffffffffffffffffffffffffffffff1614611f7a57611f79818561246b565b5b5b600073ffffffffffffffffffffffffffffffffffffffff168573ffffffffffffffffffffffffffffffffffffffff1603611fbd57611fb884612556565b611ffc565b8473ffffffffffffffffffffffffffffffffffffffff168173ffffffffffffffffffffffffffffffffffffffff1614611ffb57611ffa8585612627565b5b5b809150509392505050565b61201183836126b2565b61202661201c61160d565b60008585856119c3565b505050565b6060600e805461203a906135a4565b80601f0160208091040260200160405190810160405280929190818152602001828054612066906135a4565b80156120b35780601f10612088576101008083540402835291602001916120b3565b820191906000526020600020905b81548152906001019060200180831161209657829003601f168201915b5050505050905090565b60606120c882611548565b5060006120d361202b565b905060008151116120f3576040518060200160405280600081525061211e565b806120fd846127ab565b60405160200161210e929190613de4565b6040516020818303038152906040525b915050919050565b60007f80ac58cd000000000000000000000000000000000000000000000000000000007bffffffffffffffffffffffffffffffffffffffffffffffffffffffff1916827bffffffffffffffffffffffffffffffffffffffffffffffffffffffff191614806121f157507f5b5e139f000000000000000000000000000000000000000000000000000000007bffffffffffffffffffffffffffffffffffffffffffffffffffffffff1916827bffffffffffffffffffffffffffffffffffffffffffffffffffffffff1916145b80612201575061220082612879565b5b9050919050565b60008061221484611ce8565b9050600073ffffffffffffffffffffffffffffffffffffffff168373ffffffffffffffffffffffffffffffffffffffff1614612256576122558184866128e3565b5b600073ffffffffffffffffffffffffffffffffffffffff168173ffffffffffffffffffffffffffffffffffffffff16146122e757612298600085600080611d25565b6001600360008373ffffffffffffffffffffffffffffffffffffffff1673ffffffffffffffffffffffffffffffffffffffff168152602001908152602001600020600082825403925050819055505b600073ffffffffffffffffffffffffffffffffffffffff168573ffffffffffffffffffffffffffffffffffffffff161461236a576001600360008773ffffffffffffffffffffffffffffffffffffffff1673ffffffffffffffffffffffffffffffffffffffff168152602001908152602001600020600082825401925050819055505b846002600086815260200190815260200160002060006101000a81548173ffffffffffffffffffffffffffffffffffffffff021916908373ffffffffffffffffffffffffffffffffffffffff160217905550838573ffffffffffffffffffffffffffffffffffffffff168273ffffffffffffffffffffffffffffffffffffffff167fddf252ad1be2c89b69c2b068fc378daa952ba7f163c4a11628f55a4df523b3ef60405160405180910390a4809150509392505050565b600980549050600a600083815260200190815260200160002081905550600981908060018154018082558091505060019003906000526020600020016000909190919091505550565b600061247683610f0b565b90506000600860008481526020019081526020016000205490506000600760008673ffffffffffffffffffffffffffffffffffffffff1673ffffffffffffffffffffffffffffffffffffffff16815260200190815260200160002090508282146125225760008160008581526020019081526020016000205490508082600085815260200190815260200160002081905550826008600083815260200190815260200160002081905550505b6008600085815260200190815260200160002060009055806000848152602001908152602001600020600090555050505050565b6000600160098054905061256a9190613e08565b90506000600a600084815260200190815260200160002054905060006009838154811061259a57612599613635565b5b9060005260206000200154905080600983815481106125bc576125bb613635565b5b906000526020600020018190555081600a600083815260200190815260200160002081905550600a600085815260200190815260200160002060009055600980548061260b5761260a613e3c565b5b6001900381819060005260206000200160009055905550505050565b6000600161263484610f0b565b61263e9190613e08565b905081600760008573ffffffffffffffffffffffffffffffffffffffff1673ffffffffffffffffffffffffffffffffffffffff168152602001908152602001600020600083815260200190815260200160002081905550806008600084815260200190815260200160002081905550505050565b600073ffffffffffffffffffffffffffffffffffffffff168273ffffffffffffffffffffffffffffffffffffffff16036127245760006040517f64a0ae9200000000000000000000000000000000000000000000000000000000815260040161271b9190612de0565b60405180910390fd5b600061273283836000611627565b9050600073ffffffffffffffffffffffffffffffffffffffff168173ffffffffffffffffffffffffffffffffffffffff16146127a65760006040517f73c6ac6e00000000000000000000000000000000000000000000000000000000815260040161279d9190612de0565b60405180910390fd5b505050565b6060600060016127ba846129a7565b01905060008167ffffffffffffffff8111156127d9576127d8612eee565b5b6040519080825280601f01601f19166020018201604052801561280b5781602001600182028036833780820191505090505b509050600082602001820190505b60011561286e578080600190039150507f3031323334353637383961626364656600000000000000000000000000000000600a86061a8153600a858161286257612861613e6b565b5b04945060008503612819575b819350505050919050565b60007f01ffc9a7000000000000000000000000000000000000000000000000000000007bffffffffffffffffffffffffffffffffffffffffffffffffffffffff1916827bffffffffffffffffffffffffffffffffffffffffffffffffffffffff1916149050919050565b6128ee838383612afa565b6129a257600073ffffffffffffffffffffffffffffffffffffffff168373ffffffffffffffffffffffffffffffffffffffff160361296357806040517f7e27328900000000000000000000000000000000000000000000000000000000815260040161295a9190612e76565b60405180910390fd5b81816040517f177e802f00000000000000000000000000000000000000000000000000000000815260040161299992919061360c565b60405180910390fd5b505050565b600080600090507a184f03e93ff9f4daa797ed6e38ed64bf6a1f0100000000000000008310612a05577a184f03e93ff9f4daa797ed6e38ed64bf6a1f01000000000000000083816129fb576129fa613e6b565b5b0492506040810190505b6d04ee2d6d415b85acef81000000008310612a42576d04ee2d6d415b85acef81000000008381612a3857612a37613e6b565b5b0492506020810190505b662386f26fc100008310612a7157662386f26fc100008381612a6757612a66613e6b565b5b0492506010810190505b6305f5e1008310612a9a576305f5e1008381612a9057612a8f613e6b565b5b0492506008810190505b6127108310612abf576127108381612ab557612ab4613e6b565b5b0492506004810190505b60648310612ae25760648381612ad857612ad7613e6b565b5b0492506002810190505b600a8310612af1576001810190505b80915050919050565b60008073ffffffffffffffffffffffffffffffffffffffff168373ffffffffffffffffffffffffffffffffffffffff1614158015612bb257508273ffffffffffffffffffffffffffffffffffffffff168473ffffffffffffffffffffffffffffffffffffffff161480612b735750612b728484611373565b5b80612bb157508273ffffffffffffffffffffffffffffffffffffffff16612b99836115d0565b73ffffffffffffffffffffffffffffffffffffffff16145b5b90509392505050565b6000604051905090565b600080fd5b600080fd5b60007fffffffff0000000000000000000000000000000000000000000000000000000082169050919050565b612c0481612bcf565b8114612c0f57600080fd5b50565b600081359050612c2181612bfb565b92915050565b600060208284031215612c3d57612c3c612bc5565b5b6000612c4b84828501612c12565b91505092915050565b60008115159050919050565b612c6981612c54565b82525050565b6000602082019050612c846000830184612c60565b92915050565b600081519050919050565b600082825260208201905092915050565b60005b83811015612cc4578082015181840152602081019050612ca9565b60008484015250505050565b6000601f19601f8301169050919050565b6000612cec82612c8a565b612cf68185612c95565b9350612d06818560208601612ca6565b612d0f81612cd0565b840191505092915050565b60006020820190508181036000830152612d348184612ce1565b905092915050565b6000819050919050565b612d4f81612d3c565b8114612d5a57600080fd5b50565b600081359050612d6c81612d46565b92915050565b600060208284031215612d8857612d87612bc5565b5b6000612d9684828501612d5d565b91505092915050565b600073ffffffffffffffffffffffffffffffffffffffff82169050919050565b6000612dca82612d9f565b9050919050565b612dda81612dbf565b82525050565b6000602082019050612df56000830184612dd1565b92915050565b612e0481612dbf565b8114612e0f57600080fd5b50565b600081359050612e2181612dfb565b92915050565b60008060408385031215612e3e57612e3d612bc5565b5b6000612e4c85828601612e12565b9250506020612e5d85828601612d5d565b9150509250929050565b612e7081612d3c565b82525050565b6000602082019050612e8b6000830184612e67565b92915050565b600080600060608486031215612eaa57612ea9612bc5565b5b6000612eb886828701612e12565b9350506020612ec986828701612e12565b9250506040612eda86828701612d5d565b9150509250925092565b600080fd5b600080fd5b7f4e487b7100000000000000000000000000000000000000000000000000000000600052604160045260246000fd5b612f2682612cd0565b810181811067ffffffffffffffff82111715612f4557612f44612eee565b5b80604052505050565b6000612f58612bbb565b9050612f648282612f1d565b919050565b600067ffffffffffffffff821115612f8457612f83612eee565b5b612f8d82612cd0565b9050602081019050919050565b82818337600083830152505050565b6000612fbc612fb784612f69565b612f4e565b905082815260208101848484011115612fd857612fd7612ee9565b5b612fe3848285612f9a565b509392505050565b600082601f83011261300057612fff612ee4565b5b8135613010848260208601612fa9565b91505092915050565b600080604083850312156130305761302f612bc5565b5b600061303e85828601612e12565b925050602083013567ffffffffffffffff81111561305f5761305e612bca565b5b61306b85828601612feb565b9150509250929050565b600081519050919050565b600082825260208201905092915050565b6000819050602082019050919050565b6130aa81612d3c565b82525050565b60006130bc83836130a1565b60208301905092915050565b6000602082019050919050565b60006130e082613075565b6130ea8185613080565b93506130f583613091565b8060005b8381101561312657815161310d88826130b0565b9750613118836130c8565b9250506001810190506130f9565b5085935050505092915050565b6000602082019050818103600083015261314d81846130d5565b905092915050565b60006020828403121561316b5761316a612bc5565b5b600061317984828501612e12565b91505092915050565b60006020828403121561319857613197612bc5565b5b600082013567ffffffffffffffff8111156131b6576131b5612bca565b5b6131c284828501612feb565b91505092915050565b600060ff82169050919050565b6131e1816131cb565b81146131ec57600080fd5b50565b6000813590506131fe816131d8565b92915050565b6000806040838503121561321b5761321a612bc5565b5b600061322985828601612d5d565b925050602061323a858286016131ef565b9150509250929050565b6000819050919050565b61325781613244565b811461326257600080fd5b50565b6000813590506132748161324e565b92915050565b600080600080600060a0868803121561329657613295612bc5565b5b60006132a488828901612e12565b955050602086013567ffffffffffffffff8111156132c5576132c4612bca565b5b6132d188828901612feb565b945050604086013567ffffffffffffffff8111156132f2576132f1612bca565b5b6132fe88828901612feb565b935050606061330f888289016131ef565b925050608061332088828901613265565b9150509295509295909350565b61333681612c54565b811461334157600080fd5b50565b6000813590506133538161332d565b92915050565b600080604083850312156133705761336f612bc5565b5b600061337e85828601612e12565b925050602061338f85828601613344565b9150509250929050565b600067ffffffffffffffff8211156133b4576133b3612eee565b5b6133bd82612cd0565b9050602081019050919050565b60006133dd6133d884613399565b612f4e565b9050828152602081018484840111156133f9576133f8612ee9565b5b613404848285612f9a565b509392505050565b600082601f83011261342157613420612ee4565b5b81356134318482602086016133ca565b91505092915050565b6000806000806080858703121561345457613453612bc5565b5b600061346287828801612e12565b945050602061347387828801612e12565b935050604061348487828801612d5d565b925050606085013567ffffffffffffffff8111156134a5576134a4612bca565b5b6134b18782880161340c565b91505092959194509250565b6134c6816131cb565b82525050565b6134d581613244565b82525050565b600060a08201905081810360008301526134f58188612ce1565b905061350460208301876134bd565b61351160408301866134cc565b61351e6060830185612c60565b61352b6080830184612e67565b9695505050505050565b6000806040838503121561354c5761354b612bc5565b5b600061355a85828601612e12565b925050602061356b85828601612e12565b9150509250929050565b7f4e487b7100000000000000000000000000000000000000000000000000000000600052602260045260246000fd5b600060028204905060018216806135bc57607f821691505b6020821081036135cf576135ce613575565b5b50919050565b60006060820190506135ea6000830186612dd1565b6135f76020830185612e67565b6136046040830184612dd1565b949350505050565b60006040820190506136216000830185612dd1565b61362e6020830184612e67565b9392505050565b7f4e487b7100000000000000000000000000000000000000000000000000000000600052603260045260246000fd5b600081905092915050565b60008190508160005260206000209050919050565b60008154613691816135a4565b61369b8186613664565b945060018216600081146136b657600181146136cb576136fe565b60ff19831686528115158202860193506136fe565b6136d48561366f565b60005b838110156136f6578154818901526001820191506020810190506136d7565b838801955050505b50505092915050565b60006137138284613684565b915081905092915050565b7f4e487b7100000000000000000000000000000000000000000000000000000000600052601160045260246000fd5b600061375882612d3c565b91507fffffffffffffffffffffffffffffffffffffffffffffffffffffffffffffffff820361378a5761378961371e565b5b600182019050919050565b600081905092915050565b60006137ab82612c8a565b6137b58185613795565b93506137c5818560208601612ca6565b80840191505092915050565b60006137dd82846137a0565b915081905092915050565b60008190508160005260206000209050919050565b60006020601f8301049050919050565b600082821b905092915050565b60006008830261384a7fffffffffffffffffffffffffffffffffffffffffffffffffffffffffffffffff8261380d565b613854868361380d565b95508019841693508086168417925050509392505050565b6000819050919050565b600061389161388c61388784612d3c565b61386c565b612d3c565b9050919050565b6000819050919050565b6138ab83613876565b6138bf6138b782613898565b84845461381a565b825550505050565b600090565b6138d46138c7565b6138df8184846138a2565b505050565b5b81811015613903576138f86000826138cc565b6001810190506138e5565b5050565b601f82111561394857613919816137e8565b613922846137fd565b81016020851015613931578190505b61394561393d856137fd565b8301826138e4565b50505b505050565b600082821c905092915050565b600061396b6000198460080261394d565b1980831691505092915050565b6000613984838361395a565b9150826002028217905092915050565b61399d82612c8a565b67ffffffffffffffff8111156139b6576139b5612eee565b5b6139c082546135a4565b6139cb828285613907565b600060209050601f8311600181146139fe57600084156139ec578287015190505b6139f68582613978565b865550613a5e565b601f198416613a0c866137e8565b60005b82811015613a3457848901518255600182019150602085019450602081019050613a0f565b86831015613a515784890151613a4d601f89168261395a565b8355505b6001600288020188555050505b505050505050565b7f4e657720726172697479206d75737420626520686967686572207468616e206360008201527f757272656e740000000000000000000000000000000000000000000000000000602082015250565b6000613ac2602683612c95565b9150613acd82613a66565b604082019050919050565b60006020820190508181036000830152613af181613ab5565b9050919050565b7f5261726974792063616e6e6f7420657863656564203130000000000000000000600082015250565b6000613b2e601783612c95565b9150613b3982613af8565b602082019050919050565b60006020820190508181036000830152613b5d81613b21565b9050919050565b6000604082019050613b7960008301856134bd565b613b8660208301846134bd565b9392505050565b7f526172697479206d757374206265206265747765656e20312d31300000000000600082015250565b6000613bc3601b83612c95565b9150613bce82613b8d565b602082019050919050565b60006020820190508181036000830152613bf281613bb6565b9050919050565b60006040820190508181036000830152613c138185612ce1565b9050613c2260208301846134bd565b9392505050565b7f4e6f7420746865206f776e6572206f6620746869732061737365740000000000600082015250565b6000613c5f601b83612c95565b9150613c6a82613c29565b602082019050919050565b60006020820190508181036000830152613c8e81613c52565b9050919050565b7f4173736574206973206f6e20636f6f6c646f776e000000000000000000000000600082015250565b6000613ccb601483612c95565b9150613cd682613c95565b602082019050919050565b60006020820190508181036000830152613cfa81613cbe565b9050919050565b600081519050919050565b600082825260208201905092915050565b6000613d2882613d01565b613d328185613d0c565b9350613d42818560208601612ca6565b613d4b81612cd0565b840191505092915050565b6000608082019050613d6b6000830187612dd1565b613d786020830186612dd1565b613d856040830185612e67565b8181036060830152613d978184613d1d565b905095945050505050565b600081519050613db181612bfb565b92915050565b600060208284031215613dcd57613dcc612bc5565b5b6000613ddb84828501613da2565b91505092915050565b6000613df082856137a0565b9150613dfc82846137a0565b91508190509392505050565b6000613e1382612d3c565b9150613e1e83612d3c565b9250828203905081811115613e3657613e3561371e565b5b92915050565b7f4e487b7100000000000000000000000000000000000000000000000000000000600052603160045260246000fd5b7f4e487b7100000000000000000000000000000000000000000000000000000000600052601260045260246000fdfea2646970667358221220b9b80304c7a4e10e464f7b1d439ed2c5ee8ab138c366b18e06dba3c1a0bb6d7964736f6c634300081c0033",
  "linkReferences": {},
  "deployedLinkReferences": {}
}